:020000040800F2
:10000000B81D0020C10400082102000823020008D6
:10001000270200082B0200082F0200080000000041
:100020000000000000000000000000003302000893
:1000300035020008000000003702000839020008FD
:10004000DB040008DB040008DB040008DB04000814
:10005000DB040008DB040008DB040008DB04000804
:10006000DB040008DB040008DB040008DB040008F4
:10007000DB040008DB040008DB040008DB040008E4
:10008000DB040008DB040008DB040008DB040008D4
:10009000DB040008DB040008DB04000891570008BB
:1000A000DB040008DB040008DB040008DB040008B4
:1000B000DB040008DB04000843380008DB04000808
:1000C000DB040008DB040008DB040008DB04000894
:1000D000DB040008DB040008DB040008453E0008E0
:1000E000DB040008DB040008DB040008DB04000874
:1000F00057380008DB040008DB040008DB040008B4
:10010000DB040008DB040008DB040008DB04000853
:10011000DB04000885450008DB040008DB04000858
:10012000DB040008DB040008DB040008DB04000833
:1001300000F002F800F05FF80AA090E8000C82449A
:100140008344AAF10107DA4501D100F054F8AFF277
:10015000090EBAE80F0013F0010F18BFFB1A43F0A5
:1001600001031847DCE80000FCE800000A444FF0F7
:10017000000C10F8013B13F0070408BF10F8014B06
:100180001D1108BF10F8015B641E05D010F8016B4B
:10019000641E01F8016BF9D113F0080F1EBF10F8AF
:1001A000014BAD1C0C1B09D16D1E58BF01F801CBD2
:1001B000FAD505E014F8016B01F8016B6D1EF9D555
:1001C0009142D6D37047000000230024002500266A
:1001D000103A28BF78C1FBD8520728BF30C148BFAA
:1001E0000B60704764290AF09B82002070471FB59E
:1001F0001FBD10B510BD0AF061FC1146FFF7F7FFF7
:1002000000F00CF90AF07FFC03B4FFF7F2FF03BC27
:1002100002F0F4FA30BF72B662B680F30888704715
:10022000704700BFFEE700BFFEE700BFFEE700BF6C
:10023000FEE7704770477047704700000CB500201C
:10024000019000906C48006840F480306A49086072
:1002500000BF6948006800F4003000900198401C1D
:100260000190009818B90198B0F5A06FF1D16248DB
:10027000006800F4003010B10120009001E000207F
:1002800000900098012843D15C48006840F01000BD
:100290005A4908600846006820F0030008600846D4
:1002A000006840F0020008605348406852494860C6
:1002B0000846406848600846406840F480604860EE
:1002C0000846406820F47C1048600846406840F4C6
:1002D000E81048600846006840F08070086000BF81
:1002E0004548006800F000700028F9D04248406896
:1002F00020F00300404948600846406840F0020092
:10030000486000BF3C48406800F00C000828F9D164
:100310000CBD10B5FFF792FF10BD10B53648006850
:1003200040F00100344908600846406834490840FC
:100330003149486008460068324908402E49086043
:100340000846006820F4802008600846406820F4D1
:10035000FE0048604FF41F008860FFF7DAFF4FF09F
:1003600000602949086010BD10B50021002000225E
:10037000214B5B6803F00C0121B1042906D0082948
:1003800028D107E0214B224C236027E01F4B204C53
:10039000236023E0184B5B6803F47010164B5B6816
:1003A00003F48032022303EB904022B9194B4343FC
:1003B000174C23600DE0104B5B6803F4003323B14E
:1003C000144B4343124C236003E0104B4343104C47
:1003D000236003E00D4B0E4C236000BF00BF064BB3
:1003E0005B68C3F303130C4CE15C094B1B68CB4007
:1003F000074C236010BD00000010024000200240A6
:100400000000FFF8FFFFF6FE08ED00E000127A00A2
:100410000000002000093D0004000020022002F03E
:1004200095F802F023F8022002F07AF9012002F098
:1004300077F902F06DFB02F0DBFB02F09BFB002181
:1004400041F61F4003F033F94FF4E13002F0F3F9C5
:100450004FF4165003F0A8FC04F0F0FA03F038F95A
:1004600003F080F902F0B4FF03F00AFA02F0CEFEC6
:1004700009F04AFB09F05CFB03F0DEFE03F0A4FE8A
:1004800016E00C48007830B905F0ADFE05F00EFD21
:1004900004F0F8FC01E005F083FF01200649087034
:1004A00000200649087000BF034800780028FBD1EF
:1004B000E7E70000350000206D0000206C00002000
:1004C0000948804709480047FEE7FEE7FEE7FEE7E8
:1004D000FEE7FEE7FEE7FEE7FEE7FEE70448054924
:1004E000054A064B704700001B0300083101000855
:1004F000B8170020B81D0020B8190020B819002036
:1005000031490143314A1160704770B50021002321
:100510000F22C47804B32D4C246804F4E064C4F5BD
:10052000E064210AC1F10403CA40447804FA03F1EB
:100530008478144021430901254C0678A15504789C
:1005400004F01F050124AC4005786D11AD0005F1E4
:10055000E025C5F8004109E0047804F01F050124F6
:10056000AC401C4D0678761145F8264070BD1A4AFD
:100570000A400243154B1B1F1A60704739B1134ADA
:10058000121D12680243114B1B1D1A6006E00F4A30
:10059000121D126882430D4B1B1D1A607047042800
:1005A00008D14FF0E021096941F004014FF0E02249
:1005B000116107E04FF0E021096921F004014FF0DB
:1005C000E0221161704700000000FA050CED00E028
:1005D00000E400E080E100E080FFFF1F10B504466A
:1005E000FA48844208D10121401500F0E3FD0021C2
:1005F000601500F0DFFD17E0F548844208D10121C5
:10060000001500F0D7FD0021201500F0D3FD0BE010
:10061000F048844208D10121C80300F0CBFD00213D
:100620004FF4004000F0C6FD10BD30B5024600207A
:1006300000235068E84C20400D790C6844EA0524FA
:10064000204350609068E54C2040D1E902542C438F
:100650004D7944EA450420439060D06A20F470004C
:100660000C7C641EE4B2234340EA0350D06230BDE8
:1006700000210160017141718160C160012101743B
:10068000704721B1826842F00102826003E0826813
:1006900022F001028260704721B1826842F48072C8
:1006A000826003E0826822F480728260704710B535
:1006B0000023CBB21AB144681C43446002E0446892
:1006C0009C43446010BD816841F00801816070471F
:1006D000014600208A6802F008020AB1012000E009
:1006E00000207047816841F0040181607047014635
:1006F00000208A6802F004020AB1012000E0002014
:10070000704721B1826842F4A002826003E08268EF
:1007100022F4A00282607047014600208A6802F439
:1007200080020AB1012000E00020704710B50A469F
:1007300000210023416821F46041531E41EA433106
:10074000416010BD21B1426842F40062426003E0A2
:10075000426822F4006242607047F0B504460D46DC
:1007600000200021092D11DDE068A5F10A0606EB45
:100770004607072606FA07F18843A5F10A0606EBA5
:10078000460603FA06F10843E0600CE0206905EB39
:100790004507072606FA07F1884305EB450603FAE5
:1007A00006F108432061072A0FDA606B561E06EB3C
:1007B00086071F2606FA07F18843561E06EB8606B3
:1007C00005FA06F10843606322E00D2A0FDA206B78
:1007D000D61F06EB86071F2606FA07F18843D61FA9
:1007E00006EB860605FA06F10843206310E0E06A8E
:1007F000A2F10D0606EB86071F2606FA07F18843CD
:10080000A2F10D0606EB860605FA06F10843E06242
:10081000F0BD21B1826842F48012826003E08268F8
:1008200022F48012826070470146C86C80B2704723
:1008300066484C300068704721B1426842F48062DB
:10084000426003E0426822F480624260704721B156
:10085000426842F48052426003E0426822F48052CF
:10086000426070470A460021816821F4E04111434B
:100870008160704721B1826842F40042826003E0E7
:10088000826822F400428260704721B1826842F49B
:100890000212826003E0826822F4021282607047D2
:1008A000014600208A6802F400120AB1012000E02B
:1008B00000207047F0B504461546002000220026AF
:1008C000092911DDE068A1F10A0707EB470C0727AA
:1008D00007FA0CF29043A1F10A0707EB470703FA66
:1008E00007F21043E0600CE0206901EB410C0727A0
:1008F00007FA0CF2904301EB410703FA07F21043A9
:100900002061A06BC0F30156EF1C06F1010CA7EBB0
:100910000C0707EB870C1F2707FA0CF29043EF1C1C
:1009200006F1010CA7EB0C0707EB870701FA07F2AA
:100930001043A063F0BD10B50A4600210023816B6F
:1009400021F44011531E41EA0351816310BD08B5E3
:10095000002300930090009B0B440093009B1A60BF
:1009600008BD08B5024600200090009201F1280061
:10097000009B184400900098006880B208BD0A46A9
:1009800000214168164B1940114341607047416294
:10099000826270470A460021416821F01F0111431D
:1009A0004160704740B109490831096841F40001CC
:1009B000064A0832116007E004490831096821F449
:1009C0000001024A08321160704700000024014013
:1009D00000280140003C0140FFFEF0FFFDF7F1FF61
:1009E000FFFD3FFF0246002013680B400BB10120C2
:1009F00000E000207047CA430260704770B50246AD
:100A00000020002300240B125568CEB205EA06042C
:100A100015681D4015B10CB1012000E0002070BD2B
:100A200000220A12D34303607047000000204449AB
:100A30000860091D0860091D0860091D086041481B
:100A40003F4914310860704700213D498279002AEE
:100A50003AD00A46126803689A430B461A600A1D88
:100A6000126803689A430B1D1A60027911440A68E0
:100A700003681A430A60324A0832126803689A43CC
:100A80002F4B08331A601A1D126803689A432C4BC7
:100A90000C331A604279102A0ED11A1F12680368AB
:100AA0001A43274B08331A601A1D126803681A4349
:100AB000234B0C331A600DE02149427911440A6836
:100AC00003681A430A6005E0027911440A68036862
:100AD0009A430A6070470021016001710C21417145
:100AE0000021817170471649103109680143144A89
:100AF00010321160704701460020114A143212680A
:100B00000A400AB1012000E0002070470C4914316E
:100B100008607047014600200022094B1B6803EA69
:100B20000102074B14331B680B4013B10AB10120BB
:100B300000E000207047024914310860704700004F
:100B400000040140FFFF0F0010B50446CC4884426A
:100B500008D10121042000F02DFB0021042000F029
:100B600029FB46E0C748844208D10121082000F053
:100B700021FB0021082000F01DFB3AE0C24884421E
:100B800008D10121102000F015FB0021102000F0F9
:100B900011FB2EE0BD48844208D10121202000F045
:100BA00009FB0021202000F005FB22E0B848844228
:100BB00008D10121402000F0FDFA0021402000F082
:100BC000F9FA16E0B348844208D10121802000F0F0
:100BD000F1FA0021802000F0EDFA0AE0AE488442EC
:100BE00007D10121801500F0E5FA0021A01500F0E1
:100BF000E1FA10BD10B50121084600F0DBFA002132
:100C0000012000F0D7FA10BD2DE9F0410246002581
:100C10000026002000230024002791F803C00CF0D8
:100C20000F0591F803C00CF0100CBCF1000F03D0BD
:100C300091F802C04CEA050591F800C0BCF1000F24
:100C400031D0146800202BE04FF0010C0CFA00F3B7
:100C5000B1F800C00CEA03069E4220D183004FF099
:100C60000F0C0CFA03F7BC4305FA03FC4CEA04042E
:100C700091F803C0BCF1280F06D14FF0010C0CFA1B
:100C800000FCC2F814C00AE091F803C0BCF1480FA0
:100C900005D14FF0010C0CFA00FCC2F810C0401C4A
:100CA0000828D1D31460B1F800C0BCF1FF0F34DDC7
:100CB000546800202EE000F1080C4FF0010808FAFB
:100CC0000CF3B1F800C00CEA03069E4221D1830068
:100CD0004FF00F0C0CFA03F7BC4305FA03FC4CEA87
:100CE000040491F803C0BCF1280F05D100F1080CF1
:100CF00008FA0CF8C2F8148091F803C0BCF1480F50
:100D000007D100F1080C4FF0010808FA0CF8C2F8FE
:100D10001080401C0828CED35460BDE8F0814FF607
:100D2000FF710180022181700421C1707047024669
:100D3000002093680B400BB1012000E000207047B9
:100D40000146886880B2704702460020D3680B4095
:100D50000BB1012000E0002070470146C86880B256
:100D6000704701617047416170470AB1016100E05D
:100D700041617047C16070474FF480320A4382611D
:100D80008161826182698269704702460020434B1B
:100D900018684FF68073184040EA021008433F4B32
:100DA000186070473E49C8617047F0B50A46002395
:100DB00000240021002500F00046B6F1004F02D1CA
:100DC000364EF16901E0354E7168C0F3034583B2D8
:100DD00000F44016B6F5401F08D121F070612F4E87
:100DE000766826F070662D4F7E6012E000F4801663
:100DF000B6F5801F06D1032606FA05F4A14341F09B
:100E0000706106E0460D360103FA06F6B14341F083
:100E1000706122B1460D360103FA06F6314300F047
:100E20000046B6F1004F02D11C4EF16101E01B4EAD
:100E30007160F0BD30B500228B071C0F0F2303FA41
:100E400004F2164B08338C1053F824309343134CA0
:100E500008348D1044F8253023468C1053F8243084
:100E60008C07240F00FA04F423430C4C08348D1033
:100E700044F8253030BD0A49DC3108607047000075
:100E800000080140000C0140001001400014014026
:100E900000180140001C01400020014000000140FA
:100EA00000002042DF48006840F00100DD49086092
:100EB00008464068DC490840DA494860084600684E
:100EC000DA490840D74908600846006820F48020C5
:100ED00008600846406820F4FE0048604FF41F0098
:100EE00088607047CF49096821F48031CD4A11608C
:100EF0001146096821F480211160B0F5803F03D0CC
:100F0000B0F5802F0ED106E0C649096841F4803162
:100F1000C44A116007E0C349096841F4A021C14AED
:100F2000116000E000BF00BF704710B5014600220D
:100F3000002300204A11012A02D1BA4C236806E09E
:100F4000022A02D1B74C236A01E0B64C636A01F071
:100F50001F02012494401C400CB1012000E000203D
:100F600010BD38B5002000900024002500BF3120BE
:100F7000FFF7DBFF05460098401C00900098B0F595
:100F8000A06F01D0002DF2D03120FFF7CEFF08B1C5
:100F9000012400E00024204638BD01460020A14A7B
:100FA000106820F0F80040EAC10010607047A049C6
:100FB00008607047024600209A4B586820F47C1065
:100FC00042EA01031843974B5860704798490866F6
:100FD000704701460020934A506820F00300084300
:100FE000506070478F48406800F00C007047014621
:100FF00000208C4A506820F0F00008435060704791
:1010000001460020874A506820F4E06008435060A1
:10101000704701460020834A506820F4605040EA3F
:10102000C1005060704729B17E4A527A02437D4B1D
:101030005A7204E07B4A527A82437A4B5A72704762
:101040007B49D8310860704701460020754A5068D6
:1010500020F440400843506070470021714A20321C
:101060001170704A82F82010012802D004280AD199
:1010700004E001216B4A2032117005E00521694A24
:101080002032117000E000BF00BF7047694908605E
:1010900070476449096A0143624A116270476549B1
:1010A00044390860704730B5002100220024002335
:1010B0005C4D6D6805F00C0121B1042905D00829AB
:1010C00023D105E05C4D056022E05B4D05601FE02B
:1010D000544D6D6805F47012524D6D6805F48034FE
:1010E000022505EB92421CB9544D554305600BE0B7
:1010F0004C4D6D6805F400351DB1504D55430560EC
:1011000002E04D4D5543056002E04B4D056000BFC8
:1011100000BF444D6D6805F0F0010909484D6B5C56
:101120000568DD4045603F4D6D6805F4E061090AE2
:10113000434D6B5C4568DD4085603A4D6D6805F454
:101140006051C90A3E4D6B5C4568DD40C560354D58
:101150006D6805F44041890B3A4D6B5CC568B5FB81
:10116000F3F5056130BD29B12E4A526902432D4B7A
:101170005A6104E02B4A526982432A4B5A617047F4
:1011800029B1284A92690243264B9A6104E0254A14
:1011900092698243234B9A61704729B1214AD269EF
:1011A0000243204BDA6104E01E4AD26982431D4BA0
:1011B000DA61704729B11B4AD2680243194BDA60E1
:1011C00004E0184AD2688243164BDA60704729B1AE
:1011D000144A12690243134B1A6104E0114A12695E
:1011E0008243104B1A6170471249403908607047BA
:1011F0000F49C86470470B49C87170470948406A75
:1012000040F0807007494862704701460020054A57
:1012100092680A400AB1012000E0002070470149AD
:1012200088727047001002400000FFF8FFFFF6FED2
:10123000000042428004424200127A0000093D0050
:1012400096000020A600002010B50446FE48844207
:1012500008D10121C014FFF7ADFF0021E014FFF712
:10126000A9FFC4E0B4F1804F08D101210846FFF77F
:10127000AEFF00210120FFF7AAFFB8E0F348844247
:1012800008D101210220FFF7A2FF00210220FFF771
:101290009EFFACE0EE48844208D101210420FFF714
:1012A00096FF00210420FFF792FFA0E0E948844266
:1012B00008D101210820FFF78AFF00210820FFF74D
:1012C00086FF94E0E448844208D101211020FFF712
:1012D0007EFF00211020FFF77AFF88E0DF4884427C
:1012E00008D101212020FFF772FF00212020FFF705
:1012F0006EFF7CE0DA48844208D101214014FFF7F8
:1013000059FF00216014FFF755FF70E0D548844273
:1013100009D10121C804FFF74DFF00214FF400203F
:10132000FFF748FF63E0D048844209D10121080556
:10133000FFF740FF00214FF48010FFF73BFF56E01E
:10134000CA48844209D101214805FFF733FF002133
:101350004FF40010FFF72EFF49E0C548844208D142
:1013600001214020FFF733FF00214020FFF72FFF2E
:101370003DE0C048844208D101218020FFF727FFCB
:1013800000218020FFF723FF31E0BB48844208D1D1
:1013900001218015FFF71BFF0021A015FFF717FFA4
:1013A00025E0B648844209D101210804FFF702FF75
:1013B00000214FF48030FFF7FDFE18E0B048844272
:1013C00009D101214804FFF7F5FE00214FF4003058
:1013D000FFF7F0FE0BE0AB48844208D101218804FE
:1013E000FFF7E8FE00214FF48020FFF7E3FE10BD79
:1013F00000220288944B98420ED0994B98420BD011
:10140000B0F1804F08D0914B984205D0904B984254
:1014100002D0904B984204D14FF68F731A404B88FC
:101420001A438D4B984207D08C4B984204D04FF60C
:10143000FF431A40CB881A4302808B8883850B8830
:101440000385814B98420BD0854B984208D08B4B3B
:10145000984205D08A4B984202D08A4B984201D1DB
:101460000B7A038601238382704770B50024002223
:101470000023058C4FF6FE7635400584028C838868
:10148000048B4FF68F752C40B51E2C400D882C43D5
:10149000751E2A400D892A434D882A436A4DA84269
:1014A0000BD06F4DA84208D0744DA84205D0744DA2
:1014B000A84202D0734DA84213D14FF6F7752A40C7
:1014C0004D892A434FF6FB752A408D882A434FF6F3
:1014D000FF652B404FF6FF552B408D892B43CD895F
:1014E0002B4383800483CD888586028470BD70B5CC
:1014F000002400220023058C4FF6EF76354005844A
:10150000028C8388048B48F6FF752C404FF6FF450C
:101510002C400D884FF6FF7606EA05252C434FF642
:10152000DF752A400D8906EA05152A434D8806EA2B
:1015300005152A43444DA84202D0494DA8421DD169
:101540004FF67F752A404D894FF6FF7606EA05155E
:101550002A434FF6BF752A408D8806EA05152A43AF
:101560004FF6FF352B404FF2FF752B408D8906EA71
:1015700085052B43CD8906EA85052B4383800483AB
:10158000CD880587028470BD70B500240022002339
:10159000058C4FF6FF6635400584028C8388848B6A
:1015A0004FF68F752C404FF6FC752C400D882C4360
:1015B0004FF6FF552A400D894FF6FF7606EA0525BE
:1015C0002A434D8806EA05252A431F4DA84202D02A
:1015D000234DA8421DD14FF2FF752A404D894FF689
:1015E000FF7606EA05252A434FF6FF352A408D8807
:1015F00006EA05252A434EF6FF752B404DF6FF758A
:101600002B408D8906EA05152B43CD8906EA051581
:101610002B4383808483CD888587028470BD70B519
:10162000002200230024058C4EF6FF763540058409
:10163000038C8488828B48F6FF752A404FF6FF455D
:101640002A400D8820E00000002C014000040040EA
:1016500000080040000C0040001000400014004052
:1016600000340140004C0140005001400054014052
:1016700000180040001C00400020004000400140D5
:1016800000440140004801404FF6FF7606EA052578
:101690002A434DF6FF752B400D8906EA05352B438D
:1016A0004D8806EA05352B43FA4DA84202D0FA4D83
:1016B000A84208D14BF6FF752C408D894FF6FF7676
:1016C00006EA85152C4384808283CD88A0F840509B
:1016D000038470BD828B4FF2FF331A408283828B6A
:1016E0004FF6FF7303EA01231A4382837047F0B574
:1016F0000C461546002200210026078C4EF6FF7C82
:1017000007EA0C070784828B018C4FF6FF7707EA04
:10171000043640F6FF473A404FF6FF7707EA0527C1
:101720003A434FF6FF7707EA03373A43D94FB842B7
:101730000ED0D94FB8420BD0B0F1804F08D0D74F60
:10174000B84205D0D64FB84202D0D64FB84206D1E3
:101750004DF6FF77394046F48057394305E047F6A8
:10176000FF57394044F48057394382830184F0BDE8
:10177000828B4FF6F3731A408283828B0A438283F3
:101780007047F0B50C461546002200210026078C54
:101790004FF6FF6C07EA0C070784828B018C4FF62B
:1017A000FF7707EA04264FF60C773A404FF6FF77AB
:1017B00007EA03172F433A43B64FB8420ED0B64F4D
:1017C000B8420BD0B0F1804F08D0B44FB84205D02A
:1017D000B34FB84202D0B34FB84206D14FF6FF57CD
:1017E000394046F48077394305E04FF2FF573940DE
:1017F00044F48077394382830184F0BD028B4FF239
:10180000FF331A400283028B4FF6FF7303EA012372
:101810001A4302837047F0B50C461546002200219A
:101820000026078C4FF6EF7C07EA0C070784028B33
:10183000018C4FF6FF7707EA041640F6FF473A405F
:101840004FF6FF7707EA03373A434FF6FF7707EA89
:1018500005273A438F4FB8420ED08F4FB8420BD076
:10186000B0F1804F08D08D4FB84205D08C4FB842B0
:1018700002D08C4FB84206D14FF6DF77394046F0A0
:101880001007394305E04FF65F77394044F0100701
:10189000394302830184F0BD028B4FF6F3731A4083
:1018A0000283028B0A4302837047F0B50C4615464B
:1018B00000220021068C4FF6FE773E400684028B04
:1018C000018C4FF60C7632407E1C06EA03162E433E
:1018D0003243704EB0420ED06F4EB0420BD0B0F1DA
:1018E000804F08D06D4EB04205D06D4EB04202D050
:1018F0006C4EB04206D14FF6FD76314044F0010601
:10190000314305E04FF6F576314044F001063143AE
:1019100002830184F0BD70B505460C465D488542E2
:101920000ED05D4885420BD0B5F1804F08D05B48A2
:10193000854205D05A48854202D05A48854200D196
:1019400000E000BF208850B92389A288618828461A
:10195000FFF7ABFFE1882846FFF79EFF25E02088D0
:1019600004280AD12389A28861882846FFF753FFFB
:10197000E1882846FFF742FF17E0208808280AD1AF
:101980002389A28861882846FFF7FBFEE188284664
:10199000FFF7EEFE09E02389A28861882846FFF759
:1019A000A6FEE1882846FFF795FE70BD2DE9F041BF
:1019B00005460C4600260127608808B9022600E08B
:1019C0000026A088012801D1022700E001272088F5
:1019D000A0B92389A28861882846FFF766FFE188BD
:1019E0002846FFF759FF23893A4631462846FFF734
:1019F00012FFE1882846FFF701FF13E02389A28840
:101A000061882846FFF707FFE1882846FFF7F6FEC2
:101A100023893A4631462846FFF747FFE1882846A2
:101A2000FFF73AFFBDE8F0810A884B881A438B889C
:101A30001A43CB881A430B891A434B891A438B8963
:101A40001A43A0F8442070474FF6FF7181800021AF
:101A50000180C18041800172704700210180418076
:101A60008180C180018141818181C18170470021D4
:101A700001804180012181800021C1800181704766
:101A80000021018041808180C1800181418181816B
:101A900070470000002C0140003401400004004069
:101AA00000080040000C004021B1028842F0010211
:101AB000028004E002884FF6FE731A4002807047ED
:101AC00031B1B0F8442042F40042A0F8442005E0CF
:101AD000B0F84420C2F30E02A0F8442070471AB1B7
:101AE00083890B43838102E083898B438381704721
:101AF0008182704741EA0203A0F8483070471AB16A
:101B000083890B43838102E083898B438381704700
:101B100001894FF6F8721140018170470A46002191
:101B200001894FF68F73194011430181704730B519
:101B300004460D4629462046FFF7F0FF208940F075
:101B40000700208130BD2DE9F04104460D461646C0
:101B50001F46602D06D13B46012231462046FFF745
:101B60005AFE05E03B46012231462046FFF79DFE26
:101B700029462046FFF7D2FF208940F00700208148
:101B8000BDE8F08130B50C4600210189C9B24FF69D
:101B9000FF7505EA0325154325432943018130BD1F
:101BA0002DE9F04105460E46174698460024434667
:101BB0003A4631462846FFF7E5FF2C894FF6F87084
:101BC000044044F007044FF68F70044044F0700462
:101BD0002C81BDE8F081F0B504460D4616461F463F
:101BE0003B46324629462046FFF7CCFF208940F489
:101BF00080402081F0BD0185828270470A46002125
:101C000001884FF68F731940114301807047F0B57A
:101C10000C4615461E460021002200230189028B36
:101C2000038C4FF6F877394021434FF6FC473A4092
:101C300040F201173A434FF6DD773B404FF6FF770E
:101C400007EA06172F433B43018102830384F0BD5B
:101C50000A460021018B4FF68F731940114301830F
:101C600070470A460021018B48F6FF7319404FF672
:101C7000FF7303EA02231943018370470A460021D8
:101C8000818B4FF68F7319401143818370470A4649
:101C90000021818B48F6FF7319404FF6FF7303EA6A
:101CA000022319438183704721B1028842F08002E8
:101CB000028004E002884FF67F731A40028070476A
:101CC00021B1828842F00402828004E082884FF6CB
:101CD000FB731A408280704721B1828842F008026B
:101CE000828004E082884FF6F7731A408280704742
:101CF00021B1828842F00102828004E082884FF69E
:101D0000FE731A40828070470A460021018B4FF60D
:101D1000F77319401143018370470A460021018B74
:101D20004FF2FF7319404FF6FF7303EA0223194382
:101D3000018370470A460021818B4FF6F7731940E3
:101D40001143818370470A460021818B4FF2FF7354
:101D500019404FF6FF7303EA02231943818370474A
:101D60000A460021018B4FF6FB7319401143018392
:101D700070470A460021018B4FF6FF3319404FF69A
:101D8000FF7303EA02231943018370470A460021C7
:101D9000818B4FF6FB7319401143818370470A46CC
:101DA0000021818B4FF6FF3319404FF6FF7303EA92
:101DB00002231943818370470A460021018B4FF6A5
:101DC0007F7319401143018370470A460021018B3C
:101DD000C1F30E014FF6FF7303EA02231943018397
:101DE00070470A460021818B4FF67F7319401143DB
:101DF000818370470A460021818BC1F30E014FF6A3
:101E0000FF7303EA02231943818370470A460021C6
:101E1000018C4FF6FD7319401143018470470A4647
:101E20000021018C4FF6F77319401143018470476C
:101E30000A460021018C4FF6DF7319404FF6FF73FD
:101E400003EA02131943018470470A460021018CFA
:101E50004FF67F7319404FF6FF7303EA02131943DD
:101E6000018470470A460021018C4FF6FF53194048
:101E70004FF6FF7303EA02231943018470470A46B1
:101E80000021018C4FF2FF7319404FF6FF7303EAF4
:101E900002231943018470470A460021018C4DF644
:101EA000FF7319404FF6FF7303EA023319430184AD
:101EB000704730B5002301248C40A3B2048C9C43AE
:101EC0000484048C02FA01F5ADB22C43048430BDC5
:101ED00030B5002304248C40A3B2048C9C430484BA
:101EE000048C02FA01F5ADB22C43048430BD70B508
:101EF0000346002000241846183001258D40ACB25E
:101F00001D8CA5431D8409B1082909D100EB61008E
:101F1000056825F0700505600568154305600EE04D
:101F20000D1FC5F34E052844056825F4E0450560FE
:101F300005684FF6FF7606EA02263543056070BD58
:101F400021B1028842F00202028004E002884FF6CA
:101F5000FD731A400280704721B1028842F00402EA
:101F6000028004E002884FF6FB731A40028070473B
:101F700021B1828842F08002828004E082884FF69C
:101F80007F731A408280704702884FF6F7731A40B9
:101F9000028002880A430280704782884FF68F735E
:101FA0001A40828082880A438280704702894FF6F5
:101FB000F8731A40028102890A430281704702893C
:101FC0004FF67F731A40028102890A4302817047EB
:101FD000818470478185704781867047018770478B
:101FE00081877047A0F84010704702884FF6FF4382
:101FF0001A40028002880A43028070470146888E98
:1020000070470146088F70470146888F7047014628
:10201000B1F8400070470146888C70470146088D32
:10202000704702460020138A0B400BB1012000E0EC
:1020300000207047CA430282704730B50246002034
:1020400000230024158A05EA0103958905EA0104A5
:1020500013B10CB1012000E0002030BDCA43028260
:102060007047000010B50446FB48844209D10121A5
:102070008803FFF79FF800214FF48040FFF79AF89C
:1020800032E0F648844209D101214804FFF79FF865
:1020900000214FF40030FFF79AF825E0F048844221
:1020A00009D101218804FFF792F800214FF4802024
:1020B000FFF78DF818E0EB48844209D10121C804EC
:1020C000FFF785F800214FF40020FFF780F80BE0C0
:1020D000E548844208D101210805FFF778F800217E
:1020E0004FF48010FFF773F810BD2DE9F04786B06C
:1020F00005460E460024A24600BFA1460027B0892F
:1021000000B100BF2F462C8A4CF6FF700440F088C7
:1021100004432C82AC894EF6F3100440B088318918
:102120000843718908430443AC81AC8A4FF6FF40F1
:102130000440B0890443AC8201A8FEF7B4FFC6484E
:10214000874202D1DDF810A001E0DDF80CA0A889DB
:1021500000F4004040B10AEBCA0000EB0A103168FD
:102160004900B0FBF1F807E00AEBCA0000EB0A10E7
:1021700031688900B0FBF1F86420B8FBF0F004018D
:102180002009642101FB1089A88900F4004040B1B6
:10219000322000EBC900B0FBF1F000F0070004436F
:1021A00008E0322000EB09106421B0FBF1F000F0F0
:1021B0000F0004432C8106B0BDE8F0874FF41651A0
:1021C000016000218180C18001810C2141810021B9
:1021D0008181704710B502460020108A4FF2FF033C
:1021E00018400B884C8823438C882343CC88234396
:1021F0001843108210BD0021018041808180C18080
:10220000704721B1828942F40052828104E08289C0
:102210004DF6FF731A4082817047F0B503460024E3
:1022200000260025002040F66A17B94200D100BF01
:102230001846C1F3421401F01F06012707FA06F5FC
:10224000012C01D10C3004E0022C01D1103000E04F
:1022500014301AB107682F43076002E00768AF43E4
:102260000760F0BD1AB1838A0B43838202E0838A40
:102270008B4383827047028A4FF6F0731A400282C2
:10228000028A0A430282704782894FF2FF731A4022
:10229000828182890A438281704721B1828942F01A
:1022A0000202828104E082894FF6FD731A40828126
:1022B0007047028A4FF6DF731A400282028A0A438D
:1022C0000282704721B1028A42F48042028204E015
:1022D000028A4BF6FF731A4002827047C1F308026C
:1022E0008280704701468888C0F308007047818962
:1022F00041F0010181817047028BD2B20283028BCF
:1023000042EA012202837047028B02F47F42028379
:10231000028B0A430283704721B1828A42F0200275
:10232000828204E0828A4FF6DF731A40828270470D
:1023300021B1828A42F01002828204E0828A4FF642
:10234000EF731A408282704721B1828A42F00802FC
:10235000828204E0828A4FF6F7731A4082827047C5
:1023600021B1828942F40042828103E08289C2F372
:102370000E028281704721B1828A42F40062828219
:1023800004E0828A4FF2FF731A4082827047828A89
:102390004FF6FB731A408282828A0A438282704718
:1023A00021B1828A42F00202828204E0828A4FF6E0
:1023B000FD731A408282704702460020B1F5007F0B
:1023C00000D100BF13880B400BB1012000E00020BA
:1023D000704701F40072B2F5007F00D100BFCA431C
:1023E0000280704770B502460024002300250020BB
:1023F00040F66A16B14200D100BFC1F3421501F0A8
:102400001F03012606FA03F3012D02D196893340FA
:1024100006E0022D02D1168A334001E0968A33404D
:102420000C12012606FA04F41688344013B10CB1DC
:10243000012000E0002070BD10B50022002340F60E
:102440006A14A14200D100BF0A1201249440A3B231
:10245000DC43048010BD000000380140004400400F
:1024600000480040004C00400050004010B56FF0A4
:102470000400FEF794F82E4800682E49B0FBF1F0F6
:102480002D4908700846007800EB4001C1EBC010F0
:102490004FF6FF7101EAC0002849088010BD0146CF
:1024A000254A12784A434FF0E0235A6100229A618C
:1024B0001A46126942F001021A6100BF4FF0E02291
:1024C000106900F001021AB100F48032002AF5D040
:1024D0004FF0E022126922F001024FF0E0231A616E
:1024E00000229A6170470146144A12884A434FF00D
:1024F000E0235A6100229A611A46126942F00102F1
:102500001A6100BF4FF0E022106900F001021AB119
:1025100000F48032002AF5D04FF0E022126922F058
:1025200001024FF0E0231A6100229A617047000017
:102530000000002000127A00AA000020AC00002059
:10254000A34A0A400243A34B1A607047014607237F
:1025500023EA010212029F4B1B1D18684FF6FF036E
:1025600018409D4B184310439A4B1B1D1860704731
:102570002DE9F0410746884614461D462846FFF7D8
:10258000E5FFC5F1040007FA00F60F20284100EA34
:102590000800064306F00F06E21704EBD262521160
:1025A000920002F1E022D2F800212146E31704EB69
:1025B000D3635B11A4EB431C012303FA0CF31A430E
:1025C0002046E31704EBD3635B119B0003F1E02388
:1025D000C3F800218148005D40EA06107F49085594
:1025E000BDE8F08170B504460B46CE1701EB967638
:1025F000C6F38700CE1701EB9676B610A1EB8606E0
:10260000B606350E764B9B6943F00103744EB361F9
:102610004FEAB63353F820300F26AE40B343714E25
:1026200046F82030334653F8203004FA05F61E43AE
:102630006C4B43F820606C4B1B6801268E40334383
:10264000694E336002F0010343B1674B0C331B68E2
:1026500001268E403343644E0C36336002F0020391
:1026600043B1614B08331E6801238B401E435E4B10
:1026700008331E6070BD00B5002059490861C8606C
:102680001420486100208861C8610846006840F055
:1026900001000860084640685449084050494860B5
:1026A00008460068524908404D49086008460068DD
:1026B00020F4802008600846406820F4FE0048604E
:1026C0000020886000214FF00060FFF739FF00BD57
:1026D00010B540480830006840F004003D4908311A
:1026E00008603F48C06940F080503D49C86141489A
:1026F000406840F480703F4948600846006840F0F8
:10270000040008600846006840F002000860FDF719
:1027100081FD10BD3048001D2E49091D086070471D
:10272000014649062E4A926942F001022C4B9A61F9
:102730002C4A083A526822F0E0622A4B083B5A6061
:102740001A4652680A435A60704730B5044600255D
:10275000FFF791FF2248006840F48030204908606C
:1027600000BF1F480068400C0028FAD04FF480607A
:102770001B494860A01EC4B20846406840EA844035
:1027800048600846406840F4803048601A48006855
:1027900040F03200184908601148006840F080702D
:1027A0000F49086000BF0E480068400E0028FAD0AC
:1027B0000B48406840F002000949486005E00848BD
:1027C0004068C0F3870505F00305022DF7D130BD41
:1027D00080FFFF1F08ED00E00000FA0500E400E0C4
:1027E0000010024008000140000401400000FFF812
:1027F000FFFFF6FE007000400020024000BF70475F
:10280000B04A12785AB900BFAF4A128802F04002AB
:10281000002AF9D0C2B2AC4B1B1D1A800AE000BFDF
:10282000AA4A128802F04002002AF9D0C2B2A74B8D
:102830001B1D1A80704710B586B00446012144F272
:102840000400FEF79DFC4FF40070ADF81400032067
:102850008DF8160018208DF8170005A99C48FEF782
:10286000D3F94FF48060ADF8140004208DF8170000
:1028700005A99748FEF7C8F925208DF8000001202A
:102880008DF801008DF802008DF803006846FDF711
:102890003CFE01940020ADF80800ADF80A00ADF848
:1028A0000C00ADF810000C20ADF80E0001A987480F
:1028B000FFF71BFC01218548FFF7A3FC06B010BD04
:1028C00010B502460B460020012B08D1002104E080
:1028D000804C645C60404C1CE1B29142F8DB43B92F
:1028E000002104E07C4C645C60404C1CE1B29142ED
:1028F000F8DB10BD70B57B20764908767D217548E0
:1029000080F82E1075480168754800680AF00CF8C8
:1029100005464FF080410AF075F804460AF068F960
:1029200001B26C484183002181836D4801686B4886
:1029300000680AF001FB06466A490AF063F805469A
:1029400069490AF0F1F904460AF052F901B2614806
:10295000C18366480088404201B25E4841846448B1
:10296000B0F900105B4881846248B0F90010594802
:10297000C184614800884042800001B25548018509
:102980005E480088800001B2524841855C4800786A
:1029900030B95C480088800001B24E48818502E071
:1029A00000214C488185584800680AF05DF90546C9
:1029B00056490AF0B9F904460AF01AF901B2454835
:1029C0000184007E434908704D48007848700846ED
:1029D000408B000A88700846807EC8700846808B4D
:1029E000000A08710846007F48710846C08B000A3B
:1029F00088710846807FC8710846408C000A0872BA
:102A0000084690F8220048720846808C000A8872B6
:102A1000084690F82400C8720846C08C000A087363
:102A2000084690F8260048730846008D000A88730F
:102A3000084690F82800C8730846408D000A0874BC
:102A4000084690F82A0048740846808D000A887469
:102A5000084690F82C00C8740846008C000A0875D7
:102A6000084690F82000487501211620FFF728FF3E
:102A700018498875084690F82E00C87570BD70B565
:102A800004460D4605EB042006B230460AF0ECF889
:102A900070BD0E49091D088000BF0C49098801F06E
:102AA00040010029F9D0704700B5002200BF05E0C1
:102AB0000849885CFFF7EDFF501CC2B2182AF7DB0B
:102AC00000BD0000350000200048004000380140F3
:102AD0000008014070030020A0030020280200200D
:102AE000240200200000204300007A443C01002022
:102AF000400100203E0100204A0100204601002044
:102B0000340000204801002058000020000020412F
:102B100008B501211020FEF733FB0420ADF80000BA
:102B200010208DF8030003208DF8020069460D483F
:102B3000FEF76AF808BD18B901210B4A11600FE0D1
:102B40000A490968491C094A1160814208D10649AD
:102B50000968C943064AC2F888110021034A116076
:102B6000704700000010014088012242B40000209C
:102B70000000224208B50220FFF7D2FD0120FFF736
:102B8000CFFD01210420FEF7FBFA4FF40040ADF821
:102B9000000010208DF8030002208DF80200694625
:102BA0001148FEF731F84FF400410F48FEF7DBF80B
:102BB00008BD28B94FF400410B4A1432116011E0EE
:102BC0000A490968491C094A116081420ADB064921
:102BD0000C31096881F40041034A0C321160002174
:102BE000024A11607047000000080140B800002050
:102BF00008B501211420FEF7C3FA0120ADF800004A
:102C000004208DF803006946B548FDF7FDFF4FF439
:102C10000050ADF8000004208DF803006946B1486B
:102C2000FDF7F2FF08BD10B5AF480078062875D251
:102C3000DFE800F0030F2C3E5D7D0121A848FEF780
:102C400076F8012804D1A8480078401CA6490870ED
:102C500082E0A6480088401C80B2A449088005286C
:102C600013D101219E48FEF762F8012808D19E4841
:102C70000078401C9C49087000209C49088004E0B2
:102C800000209A4908809849087065E0012194481D
:102C9000FEF74DF8012805D194480088401C93495F
:102CA000088004E090480078401C8F49087053E089
:102CB0008E480088B0F5C87F06DD00208A4908707C
:102CC0008A490880022010BD88480088052808DD50
:102CD00085480078401C844908700020834908809A
:102CE00004E00020804908708049088034E07F4873
:102CF0000088401C80B27D490880262816D1012119
:102D00007748FEF714F8012809D177480078401C6D
:102D10007549087000207549088007E01BE0002015
:102D200071490870714908800120CCE714E0012145
:102D30006B48FDF7FCFF012805D16C480088401C5A
:102D40006A49088006E000206849088066490870E2
:102D50000320B8E700E000BF00BF0020B3E710B5D4
:102D6000FFF761FF012802D0022815D10BE060486F
:102D70000078401C5E49087008460078032801D19D
:102D80000020087009E05B48007808B9012000E0E5
:102D900000205849087000E000BF00BF10BD2DE9B9
:102DA000F04105460C46284609F076FF804641462C
:102DB0004FF07E5009F026FE07464F4909F0B4FF58
:102DC00006464E48007850B100204D4908704D49E4
:102DD00008804D4908804D4908804D490880474882
:102DE000007828B14B48006810B9002043490870AA
:102DF00048480068012814D14048007888B901206B
:102E00003F49087041480088401C80B23F49088013
:102E1000A04206DD002008803B480088401C3A495B
:102E2000088031463C4809F0EDFD074609F0FCFEFC
:102E300080B235490988884205DA01202F49087097
:102E40000320BDE8F0812E48007888B13148006841
:102E500070B92F480088401C80B22D490880A042DC
:102E600006DD0020088027480088401C254908808E
:102E700023480078F8B13146284809F0C3FD0746D9
:102E800009F0D2FE80B21F490988884213DA314620
:102E9000234809F0B7FD074609F0C6FE80B219497C
:102EA0000988884207DD1B480068012816D11349AC
:102EB00008700220C5E71248007878B131461848FA
:102EC00009F0A0FD074609F0AFFE80B20D49098860
:102ED000884203DA012009490870B2E70020B0E710
:102EE0000008014000100140BE000020BC0000208E
:102EF000370000203500002000007A44C500002083
:102F0000C4000020C0000020C2000020C600002035
:102F1000C8000020000121420000FA43000048429E
:102F20000000964310B50A461AB10123FE4C2360F7
:102F300002E00023FC4C2360002115E00023FB4C41
:102F4000236000F0800323B10123F74C0834236091
:102F500003E00023F44C083423600123F34C236086
:102F60004306180E4B1CD9B20829E7DB0123EE4CAF
:102F7000236010BD30B500241CE004F1B001C8B2DC
:102F80000021FFF7CFFF00210846FFF7CBFF00210C
:102F90001020FFF7C7FF002508E0E54901EBC50158
:102FA000085D0121FFF7BEFF681CC5B2802DF4DB70
:102FB000601CC4B2082CE0DB30BD00B500218D20C0
:102FC000FFF7B0FF00211420FFF7ACFF0021AF2076
:102FD000FFF7A8FF00BD00B500218D20FFF7A2FF7D
:102FE00000211020FFF79EFF0021AE20FFF79AFF7F
:102FF00000BD30B500240CE0002506E00020CC49DF
:1030000001EBC5010855681CC5B2802DF6DB601CBC
:10301000C4B2082CF0DBFFF7ADFF30BDF0B51446AD
:1030200000267F2801DC3F2900DDF0BD0B46CF17CD
:1030300001EB5777FF10C7F10707FAB2CF1701EB83
:103040005777FF10A1EBC707FDB2C5F107070123B2
:10305000BB40DEB24CB1B64B03EBC0039B5C3343C9
:10306000B34F07EBC007BB5408E0B14B03EBC00301
:103070009B5CB343AE4F07EBC007BB5400BFD4E724
:103080002DE9F04F80460C4615461E46A346A5F195
:103090002000C5B200273EE00C2E07D105EB45000D
:1030A000A44901EB800010F8079004E0A24800EB6F
:1030B000051010F807904FF0000A26E009F0800094
:1030C00028B121464046099AFFF7A8FF09E0099870
:1030D00008B9012000E00020024621464046FFF7E3
:1030E0009DFF4FEA49604FEA1069601CC4B2A4EB2F
:1030F0000B00B04205D15C4608F1010000F0FF086A
:1031000006E00AF1010000F0FF0ABAF1080FD5DB72
:1031100000BF781CC7B2B742BEDBBDE8F08F10B568
:103120000246012000E050430B1EA1F10104E1B270
:10313000F9D110BD2DE9FF4F81B0074691461E46DB
:103140000E9D4FF0000A002439E0301B401EC1B232
:103150000A20FFF7E4FFB9FBF0F00A21B0FBF1F21F
:1031600001FB1208BAF1000F16D1701EA04213DD48
:10317000B8F1000F0ED10120AB4605EBDB71491011
:1031800001FB04710090C8B22B4620220299FFF780
:1031900077FF12E04FF0010A0120AB4605EBDB712F
:1031A000491001FB04710090C8B208F13001CAB2A5
:1031B0002B460299FFF764FF00BF601CC4B2B44203
:1031C000C3DB05B0BDE8F08F78B505460E46144662
:1031D00018E07A2D03DD002506F11000C6B23A2E64
:1031E00004DD002005460646FFF703FF012000909E
:1031F00022780C2331462846FFF742FF05F10800EC
:10320000C5B2641C20780028E3D178BD08B502203F
:10321000FFF786FA0120FFF783FA01211820FDF756
:10322000AFFF01210820FDF7ABFF4FF48040ADF860
:10323000000010208DF8030003208DF8020069467D
:103240003E48FDF7E1FC2020ADF8000010208DF88D
:10325000030003208DF8020069463948FDF7D4FCCD
:103260001020ADF800008DF8030003208DF8020057
:1032700069463348FDF7C8FC0820ADF8000010206F
:103280008DF8030003208DF8020069462C48FDF7F5
:10329000BBFC00202449091D08606420FFF723F9C6
:1032A00001202849C1F890010021AE20FFF73AFE25
:1032B0000021D520FFF736FE00215020FFF732FE17
:1032C0000021A820FFF72EFE00213F20FFF72AFE55
:1032D0000021D320FFF726FE00210846FFF722FE3B
:1032E00000214020FFF71EFE00218D20FFF71AFE6F
:1032F00000211420FFF716FE00212020FFF712FE08
:1033000000210220FFF70EFE0021A120FFF70AFE98
:103310000021C020FFF706FE0021DA20FFF702FEA1
:103320000021122010E000008C812142B8012242CD
:10333000C003002012D1000886D50008001001400B
:10334000000C014000802142FFF7ECFD00218120AC
:10335000FFF7E8FD0021EF20FFF7E4FD0021D92071
:10336000FFF7E0FD0021F120FFF7DCFD0021DB206D
:10337000FFF7D8FD00213020FFF7D4FD0021A42065
:10338000FFF7D0FD0021A620FFF7CCFD0021AF20E4
:10339000FFF7C8FDFFF72DFE08BD10B50021002284
:1033A000C306190E0CE0002206E00023074C04EBD4
:1033B000C2046354531CDAB2802AF6DB4B1CD9B228
:1033C000431CB1EBC30FEEDB10BD0000C0030020B7
:1033D00000B587B001214FF48260FDF7D1FE4FF4B4
:1033E0000040FDF731FE2220ADF8040000208DF8EA
:1033F000070001A94E48FDF707FC4E48FDF7EEF81F
:10340000002002908DF80C008DF80D004FF4602024
:1034100004900020059001208DF8180002A945486D
:10342000FDF703F901214348FDF72BF94148FDF76A
:103430004AF900BF3F48FDF74BF90028FAD13D4853
:10344000FDF750F900BF3B48FDF751F90028FAD1CC
:1034500007B000BD10B504460723012221463548B8
:10346000FDF77BF901213348FDF74BF900BF02213D
:103470003048FDF7B7FA0028F9D02E48FDF7D4F907
:1034800010BD2DE9F04107460C460025002608E056
:103490003846FFF7DFFF05440120FFF700F8701CF6
:1034A000C6B2A642F4DBB5FBF4F080B2BDE8F08111
:1034B0002DE9F04F85B00B20FFF7CCFF019008F00D
:1034C000A7FE4FF066321C4BCDE9020108F0F0FE7A
:1034D00080460022194B08F0EBFE06460022184BEE
:1034E00008F0E6FE04460022164B08F0B7FC8246C0
:1034F00008F048FE0490049805B0BDE8F08F10B5C0
:1035000004460723012221460F48FDF726F9012131
:103510000D48FDF7F6F800BF00BF02210A48FDF78D
:1035200061FA0028F9D00848FDF77EF910BD0000C7
:10353000001001400028014066660A400000264055
:10354000000059400000B0400024014008B50121AE
:103550000420FDF715FE4020ADF8000018208DF87E
:10356000030003208DF8020069465648FDF74CFB26
:1035700001210420FDF704FE8020ADF80000182092
:103580008DF8030003208DF8020069464D48FDF7D1
:103590003BFB01210820FDF7F3FD0120ADF8000001
:1035A00018208DF8030003208DF802006946464874
:1035B000FDF72AFB01210820FDF7E2FD0220ADF80E
:1035C000000018208DF8030003208DF802006946E2
:1035D0003D48FDF719FB08BD30B587B005460C46E0
:1035E00001210220FDF7D9FDADF81450ADF81040CF
:1035F0000020ADF81200ADF8160004A93348FDF71D
:10360000F7FE6020ADF800000120ADF802000020B8
:10361000ADF80600ADF8080069462C48FDF725FF17
:103620006020ADF800000120ADF802000020ADF8E8
:103630000600ADF8080069462448FDF758FF6020F1
:10364000ADF800000120ADF802000020ADF8060042
:10365000ADF8080069461D48FDF796FF6020ADF8FB
:1036600000000120ADF802000020ADF80600ADF822
:10367000080069461548FDF7D2FF08211348FEF7F8
:1036800043FB08211148FEF748FB08210F48FEF7CD
:1036900051FB08210D48FEF756FB01210B48FEF7B0
:1036A00003FB01210948FEF7FFF907B030BD70B5F3
:1036B00004460D46FFF74AFF29462046FFF78CFFD8
:1036C00070BD000000080140000C014000040040F3
:1036D00000B587B001214803FDF752FD01211020FC
:1036E000FDF74EFDC020ADF8000004208DF803006A
:1036F00069465E48FDF788FA04A8FEF7A5F90020A0
:10370000ADF810004FF6FF70ADF814000020ADF8D2
:103710001600ADF8120004A95548FDF769FE002314
:103720001A4603215248FEF772FA01A8FEF79FF9E4
:103730000A20ADF80C0001A94D48FEF7ECF8012174
:103740004B48FEF777FC012211464948FEF7C7F9BE
:1037500000214748FEF73CFC01214548FEF7A4F94B
:1037600007B000BD00B587B001210420FDF715FDAD
:1037700001210820FDF704FDC020ADF80000042061
:103780008DF8030069463B48FDF73EFA04A8FEF7B2
:103790005BF90020ADF810004FF6FF70ADF8140093
:1037A0000020ADF81600ADF8120004A93248FDF76C
:1037B0001FFE00231A4603212F48FEF728FA01A80E
:1037C000FEF755F90A20ADF80C0001A92A48FEF7CA
:1037D000A2F801212848FEF72DFC012211462648B7
:1037E000FEF77DF900212448FEF7F2FB0121224873
:1037F000FEF75AF907B000BD0146032904D0042999
:1038000009D0082919D10FE01C4A128810B20022F1
:103810001A4B1A8013E0184A2432128810B2002280
:10382000154B24331A800AE0114A2432128810B250
:1038300000220F4B24331A8001E0002000BF00BF9C
:10384000704710B501210C48FEF7EBFB01210A4837
:10385000FEF704FC10BD10B501210548FEF7E1FBA1
:1038600001210348FEF7FAFB10BD000000100140E3
:1038700000340140000C01400008004024040040D6
:1038800008B501210820FDF77BFC4FF44040ADF85E
:10389000000010208DF8030003208DF80200694617
:1038A000F748FDF7B1F908BD10B5F548001D0068EF
:1038B00020F07040F249091D08600846006840F099
:1038C000405008600120EF490860EF48D0F83C0103
:1038D00008B9002010BD0120EA49091F0860FEF761
:1038E000DEFD0020E849C1F8BC01E64880380068E8
:1038F00008B10020EEE70120FEF7D1FD0020E149EC
:10390000091F08600120E5E710B5DD48001D0068CB
:1039100020F07040DA49091D08600846006840F050
:10392000405008600020D749091F0860D649C1F8F7
:10393000BC010120FEF7B3FD0120D249091F086038
:10394000D149C1F8BC01FEF7AAFD10BD10B5002495
:10395000CB48001D006820F07040C949091D08606F
:103960000846006840F0004008600120C549086032
:10397000FEF795FD0120C449C1F8B801FEF78FFD9F
:103980000AE0601CC4B2322C03DDFFF7BDFF00204B
:1039900010BD0120FEF783FDBA488038006800287A
:1039A000EFD1B849091F08600120F1E710B50020E8
:1039B000B449091F0860B248001D006820F070403B
:1039C000AF49091D08600846006840F04050086093
:1039D0000020AD49C1F8BC010120FEF760FD0120C7
:1039E000A849091F0860FEF75AFD0020A649C1F842
:1039F000B80110BD10B50020A249091F0860A048F9
:103A0000001D006820F070409D49091D08600846AF
:103A1000006840F04050086001209B49C1F8BC019B
:103A2000FEF73DFD01209749091F0860FEF737FDAD
:103A300000209549C1F8B80110BD70B50446904802
:103A4000001D006820F070408D49091D086008467F
:103A5000006840F04050086000208A49091F086053
:103A6000002516E0E009874908606006040E012081
:103A7000FEF715FD01208449C1F8B801FEF70FFDDE
:103A800000208049091F08600120FEF708FD681C1E
:103A9000C5B2082DE6DB70BD2DE9F04105460E46A6
:103AA00017469846FFF700FF10B90120BDE8F081E6
:103AB0006906080EFFF7C1FFFFF748FF18B9FFF7C7
:103AC00023FF0120F2E73046FFF7B7FFFFF73EFF85
:103AD00000240BE018F80400FFF7AFFFFFF736FFF4
:103AE00018B9FFF711FF0020E0E7641CBC42F1DBCE
:103AF000FFF70AFF0020D9E770B5054600246048AB
:103B0000001D006820F070405D49091D08600846EE
:103B1000006840F000400860002617E00020594986
:103B2000091F08600220FEF7BAFC01205649C1F8BF
:103B3000B8016006040E53488038006808B1601C64
:103B4000C4B20220FEF7ABFC701CC6B2082EE5DB47
:103B500015B1FFF72BFF01E0FFF74CFF204670BDCA
:103B60002DE9F04106460F4614461D46FFF79CFE20
:103B700010B90120BDE8F0817106080EFFF75DFF66
:103B8000FFF7E4FE18B9FFF7BFFE0120F2E7384661
:103B9000FFF753FFFFF7DAFEFFF786FE012101EB87
:103BA0004601C8B2FFF749FFFFF7D0FE0DE0012C38
:103BB00004D10020FFF7A0FF287003E00120FFF7E9
:103BC0009BFF28706D1C601EC4B2002CEFD1FFF764
:103BD0009BFE0020CEE770B505460E460024FFF799
:103BE00063FE2846FFF729FF641CFFF7AFFE30464F
:103BF000FFF723FF641CFFF7A9FEFFF755FE691CC2
:103C0000C8B2FFF71AFF641CFFF7A0FE0020FFF701
:103C100073FF0446FFF778FE204670BD2DE9F041A2
:103C20000746884615461E460024FFF73DFE3846E7
:103C3000FFF703FFFFF78AFE4046FFF7FEFEFFF7A0
:103C400085FEFFF731FE791CC8B2FFF7F6FEFFF7DD
:103C50007DFE00BF0DE0681EA04204D00120FFF7EA
:103C60004BFF305503E00020FFF746FF3055601C46
:103C7000C4B2AC42EFDBFFF747FE2046BDE8F0815F
:103C8000000C0140BC812142008021422DE9F0411D
:103C900080460D4616461F460024FFF705FE4046A7
:103CA000FFF7CBFEFFF752FE2846FFF7C6FEFFF7F1
:103CB0004DFE00BF06E0385DFFF7BFFEFFF746FE92
:103CC000601CC4B2B442F6DBFFF71EFE0120BDE863
:103CD000F08170B505460E46144631462846FFF77A
:103CE0007AFF2070012070BD37B504460D4602AB47
:103CF000012229462046FFF7C9FF3EBD2DE9F843C2
:103D00000746884614461D46089E6A464146384680
:103D1000FFF7DFFF28B3601CFF2101FA00F0C4F1B8
:103D200008012944491EFF220A41104300F0FF09FF
:103D3000C5F1080006FA00F0C6B2C4F1070006415A
:103D40009DF8000000EA090000909DF80000304353
:103D500000909DF8002041463846FFF7C5FFBDE8BA
:103D6000F8830020FBE7F8B506460F4614461D46CB
:103D70006A4639463046FFF7ACFF2DB10120A0401E
:103D80009DF80010084305E00120A0409DF80010B8
:103D900021EA0000C0B200909DF80020394630466C
:103DA000FFF7A2FFF8BD000010B586B00446012160
:103DB0000820FDF7E5F901218804FDF7EEF94FF43D
:103DC0008060ADF8140003208DF8160018208DF8DF
:103DD000170005A9E948FCF717FF4FF40060ADF89C
:103DE000140004208DF8170005A9E448FCF70CFF27
:103DF00027208DF8000001208DF801008DF80200C9
:103E00008DF803006846FCF780FB01940020ADF8B4
:103E10000800ADF80A00ADF80C00ADF810000C2059
:103E2000ADF80E0001A9D648FEF75FF9012240F275
:103E30002551D348FEF7F1F90121D148FEF7E1F908
:103E400006B010BD2DE9FF5F40F22551CC48FEF7CA
:103E5000C9FA00287ED0CA48FEF744FAC94908606A
:103E600008460078C8490870C6480068592807D134
:103E7000C64800886438C54908800220C4490880C3
:103E8000C0480068582807D1C04800886430BF493E
:103E900008800120BE490880BA4800680A2866DD0B
:103EA000B84800685A2809D10020BA490880BA49A0
:103EB0000880BA490880BA49088058E0B1480068CB
:103EC00041280AD10120B34908800020B249088066
:103ED000B2490880B249088049E0AA4800684528EC
:103EE0000BD10020AB4908800120AB49088000209D
:103EF000AA490880AA49088039E0A24800684228F7
:103F000007D0A0480068432803D09E480068442892
:103F10000AD100209F4908809F4908809F49088056
:103F200001209F49088022E096480068462807D073
:103F300094480068472803D09248006848280DD16B
:103F40000020944908809449088001209349088002
:103F5000002000E010E19249088008E000208D492F
:103F600008808D4908808D4908808D4908808548E2
:103F700000680A2865DA01208549088081480068C0
:103F800048B9002083490880834908808349088014
:103F90008349088055E07B480068012809D17D49A4
:103FA000088000207C4908807C4908807C49088082
:103FB00047E07448006805280BD100207549088047
:103FC00001207549088000207449088074490880E0
:103FD00037E06C480068022807D06A480068032868
:103FE00003D06848006804280AD100206949088085
:103FF000694908806949088001206949088020E0F2
:1040000060480068062807D05E480068072803D08B
:104010005C48006808280BD100205E4908805E4992
:10402000088001205D49088000205D49088008E083
:104030000020584908805849088058490880584944
:104040000880514800787B2802D10120554908702A
:104050004D4800787D2802D102205249087051480D
:10406000007801280AD1484800784F494F4A127811
:1040700088544E480078401C4C49087049480078E4
:10408000022879D14848C078502803D101204849F6
:10409000087064E044484078232860D043480078A2
:1040A0004449087034E041490978424A1278881A34
:1040B00008F097F8804642460B4600203E4907F03C
:1040C000CDF804460D463B490978491E364A515CF5
:1040D000A1F1300008F085F8064622462B4608F08C
:1040E000E7F882468B463548006808F0F1FB5246F7
:1040F0005B46CDE9000107F0F5FDCDE9020107F0CF
:10410000BFFD2E4908602B480078401E29490870E1
:10411000284800780428C6DA23484078303809282F
:104120001BD2DFE800F0050C131415161718190040
:104130002248006808F05CFD214908600EE01F4835
:10414000006808F055FD1F49086007E006E005E03B
:1041500004E003E002E001E000E000BF00BF002057
:104160001049087011490870124908701349086015
:1041700032210D4806F044FBBDE8FF9F000C0140D2
:1041800000480040D0000020CC0000202800002083
:10419000260000201E000020200000202200002019
:1041A00024000020D4000020C0070020D5000020FB
:1041B0006E000020D600002000002440D80000201F
:1041C000FC010020F80100201FB501210846FCF782
:1041D000D7FF01210820FCF7D3FF4FF40070ADF8A2
:1041E0000C0048208DF80F0003A91248FCF70CFDC5
:1041F00009210120FCF71EFE4FF400700190002001
:104200008DF808000C208DF8090001208DF80A00B7
:1042100001A8FCF719FC17208DF8000002208DF88A
:10422000010001208DF802008DF803006846FCF7BC
:104230006CF91FBD000C014000B587B0FD48FDF7CB
:1042400011FF01211020FCF79BFF01212020FCF72A
:1042500097FF01210805FCF7A0FF4FF48050ADF84F
:10426000180018208DF81B0003208DF81A0006A9ED
:10427000F148FCF7C9FC0420ADF818008DF81B00CC
:1042800006A9EE48FCF7C0FC35208DF8140001208B
:104290008DF815008DF816008DF8170005A8FCF7AD
:1042A00034F94FF4613001900020ADF80800ADF80A
:1042B0000A00ADF80C00ADF810000C20ADF80E00AF
:1042C00001A9DC48FDF711FF012240F22551D94830
:1042D000FDF7A3FF0121D748FDF793FF07B000BD0D
:1042E0002DE9F04F91B0202109A806F0ABFAD4498E
:1042F0008979D34A527901EB022007F072FF074611
:104300000022D04B07F0AAFD054607F0B9FC834612
:10431000CB4991F83810CA4A92F8372001EB0220B5
:1043200007F05FFF05460022C64B07F097FD0746E2
:1043300007F0A6FC08902021684606F083FAC249DF
:10434000584608F0BDFD09D2C049089808F0B8FCED
:1043500004D2BF49089808F0E7FA08904FF0000926
:1043600027E0484608F098FC07465946089808F0A8
:10437000E3FD80464FF0824108F044FB0646394693
:1043800008F0D2FC0546594608F0CEFA4DF829004F
:104390005DF82900AE4908F093FD06D25DF82900CA
:1043A000AB4908F0C9FD4DF8290009F1010000F002
:1043B000FF09B9F1080FD4DB0024A0E0102C75D25E
:1043C000DFE804F008091A1B2C2D3E3F50516263B0
:1043D0007576878800BF04EB44019948C01D0844E6
:1043E000417804EB44029648C01D805C01EB00203C
:1043F0000999084409907FE000BF04EB440190480C
:10440000C01D0844417804EB44028D48C01D805C07
:1044100001EB00200A9908440A906DE000BF04EB0C
:1044200044018748C01D0844417804EB4402844895
:10443000C01D805C01EB00200B9908440B905BE0F1
:1044400000BF04EB44017E48C01D0844417804EBE2
:1044500044027B48C01D805C01EB00200C9908449D
:104460000C9049E000BF04EB44017548C01D0844AE
:10447000417804EB44027248C01D805C01EB0020CF
:104480000D9908440D9037E000BF04EB44016C48DF
:10449000C01D0844417804EB44026948C01D805C9B
:1044A00001EB00200E9908440E9025E023E000BFA8
:1044B00004EB44016248C01D0844417804EB440207
:1044C0005F48C01D805C01EB00200F9908440F90ED
:1044D00012E000BF04EB44015948C01D0844417874
:1044E00004EB44025648C01D805C01EB002010998B
:1044F0000844109000E000BF00BF601CC4B2102C44
:10450000FFF65CAF4FF0000A16E05DF82A00514953
:1045100009785144504A02EBC101486009A850F89B
:104520002A00C0F34F004B490978514422F831006A
:104530000AF1010000F0FF0ABAF1080FE5DB454877
:10454000007808304349087008460078E12816DBF7
:1045500000240FE0404800EBC40040683F4901EBF5
:10456000C40148603C4830F834003C4921F834002C
:10457000601CC4B2E12CEDDB00203649087011B09C
:10458000BDE8F08F10B540F225512A48FDF72AFF0B
:10459000002869D040F225512648FDF74DFF2548F7
:1045A000FDF7A0FEC4B22E4800783A2872D2DFE8A8
:1045B00000F01D32627885929FACF0EEADF1ECAE6A
:1045C000F2EAAFF3E8B0F4E6B1F5E4B2F6E2B3F73D
:1045D000E0B4F8DEB5F9DCB6FADAB7FBD8B8FCD649
:1045E000B9FDD4BAFED2BBFFD0CFCECDA52C0CD115
:1045F000134804701A480078401C1949087019487B
:10460000007820441749087004E00020144908701D
:10461000144908703DE15A2C27D1094844701048CC
:104620000078401C0E4908700E48007820440D495F
:1046300008701FE0005000400010014000140140CD
:10464000FC0E0020000059400000AF430000504124
:104650000000B443DC000020F4070020380F0020E5
:10466000DD000020DE00002014E10020DC4908709D
:10467000DC4908700DE13A2C0DD1DB488470D84834
:104680000078401CD6490870D64800782044D549A7
:10469000087005E0FCE00020D1490870D14908709D
:1046A000F7E0D148C470CE480078401CCC4908706F
:1046B000CC4800782044CB490870EAE0CA4804712D
:1046C000C7480078401CC6490870C6480078204496
:1046D000C4490870DDE0C4484471C1480078401CFA
:1046E000BF490870BF4800782044BE490870D0E038
:1046F000BD488471BA480078401CB9490870B9486F
:1047000000782044B7490870C3E000BF00BF00BF75
:1047100000BF00BF00BF00BF00BF00BF00BF00BFA1
:1047200000BF00BF00BF00BFB048007800EB4001F1
:10473000AD48C01D4454AA480078401CA8490870E0
:10474000A84800782044A7490870A2E086E077E0F6
:1047500068E04FE02CE04CE029E049E026E046E04C
:1047600023E043E020E040E01DE03DE01AE03AE0D5
:1047700017E037E014E034E011E031E00EE02EE025
:104780000BE02BE008E028E005E025E002E022E075
:10479000FFE700BF00BF00BF00BF00BF00BF00BFFA
:1047A00000BF00BF00BF00BF00BF00BF00BF00BF11
:1047B0008E48007800EB40018B48C01D08444470CF
:1047C00087480078401C8649087086480078204455
:1047D000844908705DE000BF00BF00BF00BF00BF9C
:1047E00000BF00BF00BF00BF00BF00BF00BF00BFD1
:1047F00000BF00BF7D48007800EB40017A48C01D33
:104800000844847076480078401C754908707548E3
:10481000007820447349087074480078401C73493C
:10482000087036E0704880F837406D480078401CCA
:104830006B4908706B48007820446A49087028E08A
:10484000694880F8384066480078401C6449087020
:10485000644800782044634908701AE0624880F890
:10486000394000205E490870604908705E4890F841
:1048700039005C490978884202D1FFF731FD03E035
:104880003A21594805F0DEFF00205649087000E043
:1048900000BF00BF10BD2DE9F34F85B0DDE9050174
:1048A00008F03FFB524908605248016850480068D0
:1048B00008F042FB019008F00BF806464E4A4F4BB9
:1048C00007F0F6FC044600224D4B07F0C7FA80467D
:1048D00089464748006807F0FBFF06460022494B1F
:1048E00007F0E6FC04460022454B07F0B7FA4246C3
:1048F0004B46CDE9020107F001FF824607F0C0F9FF
:10490000414908603A4800683A4908603E480068F2
:1049100007B0BDE8F08F2DE9F34F85B0DDE9050163
:1049200008F0FFFA3949086039493A48006808F048
:10493000C7FA03D236483749086008E03649354897
:10494000006808F0BDF902D23348324908603348A4
:1049500001682E48006808F0EFFA064607F0B8FF35
:1049600004462F4A2F4B07F0A3FCCDE9020129484A
:10497000006807F0ADFF0646294A2A4B07F098FC6D
:1049800004460D462148006807F0A2FF0646264A65
:10499000264B07F08DFC804622462B4607F0AEFEE4
:1049A000CDE90001DDE9022307F0A8FE824607F009
:1049B00067F91F49086015480068184908601D48D4
:1049C00001681D48006801F0C1F9012802D10020EA
:1049D000104908601648006807B0BDE8F08F000075
:1049E000DD000020DE000020FC0E0020DF000020A3
:1049F000E0000020E80000209A9999999999B93F20
:104A000000408F400000E0BFE4000020EC000020E8
:104A100000007A44F400002000007AC4F80000206E
:104A20002D431CEBE2361A3F7B14AE47E17A84BF7C
:104A3000F0000020580000205C00002008B5012193
:104A40001820FCF79DFB01211020FCF799FB482062
:104A50008DF803004FF48070ADF8000003208DF84E
:104A600002006946F748FCF7CFF810208DF80300E4
:104A70004001ADF800006946F348FCF7C5F8102086
:104A80008DF80300ADF8000003208DF802006946A0
:104A9000ED48FCF7B9F810208DF803000001ADF8DF
:104AA000000003208DF802006946E748FCF7ACF8E7
:104AB00008BD38B50446012000900020E349487045
:104AC000012000902EE0BDF80000204018B1012028
:104AD000DF49086002E00020DD4908600120DC4970
:104AE000091F08600520FDF7DAFC0020D949C1F84C
:104AF000A0010520FDF7D3FC0120D649C1F8A00193
:104B0000D548D0F8200130B1D0484078BDF8001029
:104B10000843CE494870BDF800004FF6FF7101EA26
:104B200040000090BDF80000FF28CCDD1020FDF70C
:104B3000B6FC38BD10B50020C54914390860C74916
:104B40000878FFF7B6FFC5494878FFF7B2FF0120A4
:104B5000C049C1F89001BD484078732801D10020B8
:104B600010BD0120FCE71CB5002001900120009041
:104B70000020B74914390860B8490878FFF799FF51
:104B8000B6494878FFF795FF0220019036E00120F2
:104B9000009027E00120AE49091F08600520FDF7BD
:104BA0007EFC0020AB49C1F8A0010520FDF777FC91
:104BB0000120A849C1F8A001A748D0F8200150B1B0
:104BC000A2489DF80410405CBDF8001008439F49BE
:104BD0009DF804208854BDF800004FF6FF7101EAEB
:104BE00040000090BDF80000FF28D3DD1020FDF745
:104BF00056FC9DF80400401CC0B201909DF80400D2
:104C00000928C4DB01209249143908601CBD00202A
:104C100004E000218D4A1154411CC8B20928F8DB78
:104C2000704710B5FFF7F3FFFFF79DFF8748C07887
:104C30008649097940EA01208949088000240FE06B
:104C4000884810F81400401E012101FA00F0844940
:104C50000988084010B9601CC0B210BD601CC4B205
:104C6000102CEDDB0020F8E701467848405C7047E7
:104C700070B505460C4600207549143908601020AF
:104C8000FDF70DFC0120FFF714FF4220FFF711FF95
:104C90000020FFF70EFF2846FFF70BFF2046FFF727
:104CA00008FF0020FFF705FF0020FFF702FF0020AC
:104CB000FFF7FFFE0020FFF7FCFE01206549C1F869
:104CC00090011020FDF7EBFB70BD10B5002060498E
:104CD000143908601020FDF7E2FB0120FFF7E9FE20
:104CE0004220FFF7E6FE0020FFF7E3FE0020FFF77B
:104CF000E0FE0020FFF7DDFE01205649C1F89001DB
:104D00001020FDF7CCFB10BD10B500205049143920
:104D100008601020FDF7C3FB0120FFF7CAFE432007
:104D2000FFF7C7FE0020FFF7C4FE0120FFF7C1FE1A
:104D30000020FFF7BEFE0020FFF7BBFE0020FFF7BC
:104D4000B8FE0020FFF7B5FE0020FFF7B2FE0120FD
:104D50004049C1F890011020FDF7A1FB10BD10B52E
:104D600000203B49143908600120FFF7A2FE4420CF
:104D7000FFF79FFE0020FFF79CFE0120FFF799FE42
:104D80000320FFF796FE0020FFF793FE0020FFF7B9
:104D900090FE0020FFF78DFE0020FFF78AFE012025
:104DA0002C49C1F890011020FDF779FB10BD10B51A
:104DB00000202749143908601020FDF770FB0120FE
:104DC000FFF777FE4D20FFF774FE0020FFF771FE1E
:104DD0000020FFF76EFE0120FFF76BFE01201D494A
:104DE000C1F890011020FDF75AFB10BD10B500204E
:104DF0001749143908601020FDF751FB0120FFF717
:104E000058FE4320FFF755FE0020FFF752FE00201A
:104E1000FFF74FFE5A20FFF74CFE5A20FFF749FEDE
:104E20005A20FFF746FE5A20FFF743FE5A20FFF7AD
:104E300040FE01200749C1F890011020FDF72FFB2B
:104E400010BD0000000C0140001001404016002081
:104E5000A40122420000224200802142FE000020E4
:104E6000FC0000200001002010B5FFF72EFFFFF727
:104E70002CFFFFF72AFFFFF747FFFFF770FFFFF751
:104E8000B5FF10BD10B5FFF7CCFE754908600720CF
:104E9000FFF7EAFE734908600820FFF7E5FE724954
:104EA00008600520FFF7E0FE704908600620FFF764
:104EB000DBFE6F4908606A480068042805D16D4828
:104EC000007810B901206C4908606B48006878B11F
:104ED0006548006876280BDA6648007840B90120FA
:104EE0006449087065486649086066486649086014
:104EF00010BD2DE9F04114245B480068C0F1800525
:104F00005A480068C0F180066042854202DDA54231
:104F100000DA00256042864202DDA64200DA002661
:104F2000284607F0A1FE07464FF086415448006826
:104F300007F068FD8046394607F0F6FE53490860E1
:104F400000215248006807F0BBFF12D8304607F036
:104F50008BFE80464FF086414B48006807F052FDBB
:104F600080F000474146384607F0DEFE48490860B9
:104F70000FE0304607F078FE07464FF08641424882
:104F8000006807F03FFD8046394607F0CDFE4049F6
:104F90000860334800680B282BD13E480078401C3D
:104FA000C0B23C490870142857D100202C49086031
:104FB0003849087038493248006807F0B5FC304974
:104FC000074608602F4907F07BFF02D22D482C4985
:104FD00008602A492C48006807F0A6FC2A490746C1
:104FE00008602E4907F06CFF37D22C48264908602C
:104FF00033E01B4800680C282BD129480078401C5E
:10500000C0B227490870142827D10020144908602D
:105010002349087020491A48006807F08DFF184995
:10502000074608601C4907F04BFE02D21A48144993
:10503000086012491448006807F07EFF12490746CD
:105040000860104907F03CFE07D20E480E49086080
:1050500003E00020124908700870BDE8F0810000EC
:105060003001002020010020240100202801002020
:105070002C0100203600002034010020000096435F
:105080002C000020000048443000002038000020A0
:105090003C000020380100200000C8420000FA4413
:1050A000390100202DE9FF4F8DB0074614461D46FB
:1050B0004FF07E56F8480C90F8480B9080070A9005
:1050C000F7480990F74808901D99089807F02CFEBA
:1050D00005901C99099807F027FE04901A990A98E0
:1050E00007F022FE294603900B9807F01DFE21468B
:1050F00002900C9807F018FE31460190384607F0F0
:1051000013FE0090019907F00FFC8346029907F007
:105110000BFC8246039907F007FC8146049907F0CF
:1051200003FC8046059907F0FFFB80F000400790E4
:105130001D99089807F0F8FD05901C99099807F04B
:10514000F3FD04901B990A9807F0EEFD29460390A1
:105150000B9807F0E9FD214602900C9807F0E4FD5A
:10516000019030460E9907F0DFFD0090019907F09D
:10517000DBFB8346029907F0D7FB8246039907F0D1
:10518000D3FB8146049907F0CFFB8046059907F0D1
:10519000CBFB80F00040069011B0BDE8F08F0028F6
:1051A00008DD4FF4E152C04B1A80C0F5E1521B1DDF
:1051B0001A8007E000F5E152BB4B1A804FF4E15230
:1051C0001B1D1A80002909DDC1F5E152B64B0833D9
:1051D0001A804FF4E1521B1D1A8008E04FF4E1528F
:1051E000B14B08331A8001F5E1521B1D1A8070473C
:1051F00003461846884200DD0846904200DA104611
:1052000070472DE9FC5F05460E463146284607F0FB
:1052100088FE0446A5480168204607F08DFE8346B7
:10522000A348006807F020FD5946009007F07CFD78
:105230008146A048006807F017FD8346214607F025
:1052400073FD8246494607F06FFB80469A48006826
:1052500007F00AFD4146019007F066FB074607F09C
:10526000C7FC95490860914804609448007810B9DB
:105270009348007820B100208F4908609049087059
:105280008D480068BDE8FC9F2DE9FC5F05460E4691
:105290003146284607F045FE04468A480168204604
:1052A00007F04AFE83468248006807F0DDFC594655
:1052B000009007F039FD81467E48006807F0D4FC75
:1052C0008346214607F030FD8246494607F02CFB15
:1052D00080467D48006807F0C7FC4146019007F012
:1052E00023FB074607F084FC774908607548046093
:1052F0007248007810B97248007820B100207249D5
:1053000008606F49087070480068BDE8FC9F2DE98F
:10531000F0416E48007800287BD16D480088012854
:1053200024D16C48006807F0D3FA06466A4A6B4BF2
:1053300006F0D8FC044606F0A3FC664908606848FD
:10534000006807F0C5FA0646634A644B06F0CAFCDB
:10535000044606F095FC62490860624862490860AC
:10536000624908606248634908607CE062480088DE
:10537000012824D15748006807F0AAFA0646564A81
:10538000564B07F0BBF9044606F07AFC5149086019
:105390005348006807F09CFA06464F4A4F4B07F007
:1053A000ADF9044606F06CFC4D49086053484E497F
:1053B00008604E49086052484E49086053E0514821
:1053C0000088012826D14348006807F081FA064684
:1053D0004D4A4E4B07F092F9044606F051FC3D4908
:1053E00008603F48006807F073FA0646464A474B94
:1053F00006F078FC044606F043FC3949086044484E
:105400003949086043483949086000203949086033
:1054100029E02FE040480088012824D12D48006869
:1054200007F056FA0646384A384B06F05BFC04464D
:1054300006F026FC274908602948006807F048FA6A
:105440000646314A314B07F059F9044606F018FC7C
:10545000234908602F48244908602D4823490860E3
:1054600000202449086000201F4908601F49086087
:1054700020490860BDE8F0812DE9F04104460D4661
:105480002946204607F04DFD0746244907F04CFC0D
:1054900006463046BDE8F08100E0BEC4CDCCE14414
:1054A000333349C266E68543340400401C020020C1
:1054B000FC010020F8010020200200203400002020
:1054C00001020020140200201802002037000020F2
:1054D0001E0000208C0100209A9999999999B93F52
:1054E000900100200AD7233C94010020980100205D
:1054F0004DF38E3D9C010020200000200AD723BCE4
:105500004DF38EBD220000207B14AE47E17A843F2C
:105510006F1283BA6F12833A24000020EA04B43D6C
:105520002DE9F04F87B00646012E1BD104F067FB32
:10553000FE480068FE490860FE49B1F9000007F026
:1055400093FBFD490860FB49B1F9040007F08CFBAF
:10555000FA490860FA49B1F9040007F085FBF949F6
:10556000086012E14421D020FEF735FB07464321B5
:10557000D020FEF730FB07EB002000B2F249088094
:105580004621D020FEF727FB07464521D020FEF715
:1055900022FB07EB002000B2EC4908804821D02014
:1055A000FEF719FB07464721D020FEF714FB07EB57
:1055B000002000B2E64908803C21D020FEF70BFB1A
:1055C00007463B21D020FEF706FB07EB002000B288
:1055D000E04908803E21D020FEF7FDFA07463D2134
:1055E000D020FEF7F8FA07EB002000B2DA49088075
:1055F0004021D020FEF7EFFA07463F21D020FEF7EA
:10560000EAFA07EB002000B2D4490880CE48B0F98E
:105610000000404207F028FBC7490860CD48B0F9B8
:10562000000006F0DEFDCE4ACE4BCDE9040106F0C7
:1056300015FC074606F024FB8146C748B0F9000078
:1056400006F0CFFDC64AC74BCDE9040106F006FCC3
:10565000074606F015FB8246C048B0F9000006F088
:10566000C0FD0746BE4ABF4B06F0F8FBCDE904017A
:1056700006F006FB8346B448B0F9000006F0B1FD21
:1056800007464FF06632B84B06F0E8FBCDE904015F
:1056900006F0F6FA0546AD48B0F9000006F0A1FDA7
:1056A0004FF06632B04BCDE9040106F0D7FB074658
:1056B00006F0E6FA0446AD480078022835D185F0B8
:1056C000004842465946504604F0FFFC074607F0A2
:1056D000FFF8A74AA74BCDE9000106F0BFFB002267
:1056E000A54BCDE9020106F0E3FDCDE9040106F08A
:1056F000C7FA8E49086022465946484604F032FEF1
:10570000019007F0E5F80746994A9A4B06F0A6FB88
:105710000022994BCDE9020106F0CAFDCDE9040152
:1057200006F0AEFA954908601DE09048007803281D
:1057300019D19348B0F9000007F096FA07462946B8
:1057400001F05DF880F00040784908608D48B0F9BC
:10575000000007F089FA0746214601F0CDF980F0F4
:1057600000408649086071480068714908607848BF
:10577000B0F9000007F078FA704908607748B0F98E
:10578000000007F071FA6F49086007B0BDE8F08FBC
:105790002DE9FF5F7C48006800287CD14FF4007041
:1057A0007A4908600420FEF727F879490860082044
:1057B000FEF722F84042774908601E210F20FDF7CE
:1057C00060FE754908807548007808B9012000E03E
:1057D00000207249087065480078FFF7A1FE704804
:1057E0000078401C6E4908700021C820FDF7D7FAE8
:1057F0008246BAF1030F07D16A48007808B9012040
:1058000000E00020674908706748007801280BD144
:1058100066480078401CC0B2644908700A2803D169
:1058200000200870604908705C480078012823D186
:10583000FDF73EFE5E4908605E480068401C5D4919
:1058400008605D4800685A49096808445A49086078
:105850005848006864280BD108460068642190FB12
:10586000F1F056490860002053490860514908602A
:10587000002004B0BDE8F09F4548006807F0F4F947
:105880004F49019007F0BEF8834607F021F88046A3
:10589000374A384B00E057E206F00AFD0646002280
:1058A0004FF0804306F004FD04464FF08042454B24
:1058B00006F0D4FACDE9020106F0E2F942490860A7
:1058C0000846006807F004F8804600223F4B06F0C7
:1058D000EFFC064600224FF0804306F0BFFA044674
:1058E00006F0CEF93A4908603A493748006807F0AF
:1058F0001BFA044638480168204607F015F8364977
:1059000008602448006807F0AFF92D49019007F0BE
:1059100079F8834606F0DCFF8046154A154B06F001
:10592000C7FC064600224FF0804357E0F8020020F3
:105930005C000020E40200206000002064000020E1
:10594000EA02002074000020460100204A010020E5
:1059500048010020400100203C0100203E010020C1
:105960008FC2F5285C1F9A40665E8D401C000020A7
:10597000F1D4C853FB21094000806640F4020020A6
:1059800042010020440100202481214214040140EE
:105990004400002048000020940000201002002055
:1059A00000020020350000206D0000206C00002067
:1059B00004020020080200200C02002058000020F1
:1059C00000606A47E17A743FBC01002000C050408B
:1059D000240200200AD7A33BC401002006F068FC83
:1059E0004FF08042F64BCDE9020106F037FA04464B
:1059F00006F046F9F34908600846006806F068FFBB
:105A000080460022F04B06F053FC064600224FF081
:105A1000804306F023FA044606F032F9EB490860A9
:105A2000EB49E848006807F07FF90446E948016857
:105A3000204606F079FFE7490860E4480168E64837
:105A4000006806F071FF834606F042FFE34ADC4B34
:105A5000CDE9000106F02CFC064600224FF0804301
:105A600006F0FCF9CDE90201DD48006806F030FFE0
:105A70000446DDE9022306F035F9804606F000F918
:105A8000D7490860D749D848006806F0BBFF804670
:105A900006F01EFF0646D54AD54B06F009FC044623
:105AA00006F0EEF8D3490860D349D448006806F000
:105AB000A9FF834606F00CFF0646D14AD14B06F0FB
:105AC000F7FBCDE90201D048006806F001FF04466B
:105AD000DDE9022306F006F9804606F0D1F8CA494E
